{
  "contractName": "PassportStub",
  "abi": [
    {
      "anonymous": false,
      "inputs": [
        {
          "indexed": true,
          "name": "from",
          "type": "address"
        },
        {
          "indexed": true,
          "name": "to",
          "type": "address"
        },
        {
          "indexed": false,
          "name": "value",
          "type": "uint256"
        }
      ],
      "name": "Pay",
      "type": "event",
      "signature": "0x288d9a5737d39d766acb848da277a970d9ee31f9115e17490b9393e282fa7b4d"
    },
    {
      "constant": true,
      "inputs": [
        {
          "name": "owner",
          "type": "address"
        }
      ],
      "name": "payCountOf",
      "outputs": [
        {
          "name": "",
          "type": "uint256"
        }
      ],
      "payable": false,
      "stateMutability": "view",
      "type": "function",
      "signature": "0x4e99c06e"
    },
    {
      "constant": false,
      "inputs": [
        {
          "name": "to",
          "type": "address"
        },
        {
          "name": "value",
          "type": "uint256"
        }
      ],
      "name": "pay",
      "outputs": [
        {
          "name": "",
          "type": "uint256"
        }
      ],
      "payable": false,
      "stateMutability": "nonpayable",
      "type": "function",
      "signature": "0xc4076876"
    }
  ],
  "bytecode": "0x608060405234801561001057600080fd5b5061030b806100206000396000f3fe60806040526004361061004c576000357c0100000000000000000000000000000000000000000000000000000000900463ffffffff1680634e99c06e14610051578063c4076876146100b6575b600080fd5b34801561005d57600080fd5b506100a06004803603602081101561007457600080fd5b81019080803573ffffffffffffffffffffffffffffffffffffffff169060200190929190505050610125565b6040518082815260200191505060405180910390f35b3480156100c257600080fd5b5061010f600480360360408110156100d957600080fd5b81019080803573ffffffffffffffffffffffffffffffffffffffff169060200190929190803590602001909291905050506101a8565b6040518082815260200191505060405180910390f35b60008073ffffffffffffffffffffffffffffffffffffffff168273ffffffffffffffffffffffffffffffffffffffff161415151561016257600080fd5b6000808373ffffffffffffffffffffffffffffffffffffffff1673ffffffffffffffffffffffffffffffffffffffff168152602001908152602001600020549050919050565b60008073ffffffffffffffffffffffffffffffffffffffff163373ffffffffffffffffffffffffffffffffffffffff16141515156101e557600080fd5b6000803373ffffffffffffffffffffffffffffffffffffffff1673ffffffffffffffffffffffffffffffffffffffff168152602001908152602001600020600081548092919060010191905055508273ffffffffffffffffffffffffffffffffffffffff163373ffffffffffffffffffffffffffffffffffffffff167f288d9a5737d39d766acb848da277a970d9ee31f9115e17490b9393e282fa7b4d846040518082815260200191505060405180910390a36000803373ffffffffffffffffffffffffffffffffffffffff1673ffffffffffffffffffffffffffffffffffffffff1681526020019081526020016000205490509291505056fea165627a7a723058209401a2d3aedd8bb943533ea2d3a4133071f6e0b2699159f4f13981864cae9b020029",
  "source": "// Copyright (C) 2019 Kaula, Inc - All Rights Reserved\n// Unauthorized copying of this file, via any medium is strictly prohibited\n// Proprietary and confidential\n\npragma solidity ^0.5.0;\n\ncontract PassportStub {\n    mapping (address => uint256) private payCounts;\n\n    event Pay(address indexed from, address indexed to, uint256 value);\n\n    function payCountOf(address owner) external view returns (uint256) {\n        require(owner != address(0));\n\n        return payCounts[owner];\n    }\n\n    function pay(address to, uint256 value) public returns (uint256){\n        require(msg.sender != address(0));\n\n        payCounts[msg.sender]++;\n        emit Pay(msg.sender, to, value);\n        return payCounts[msg.sender];\n    }\n}\n",
  "sourcePath": "/Users/ishimoto/apps/chainTest/contracts/PassportStub.sol",
  "compiler": {
    "name": "solc",
    "version": "0.5.0+commit.1d4f565a.Emscripten.clang"
  },
  "schemaVersion": "3.0.2",
  "updatedAt": "2019-02-26T05:19:27.907Z",
  "devdoc": {
    "methods": {}
  },
  "userdoc": {
    "methods": {}
  }
}